


root@ubuntu:~# bitcoin-cli -regtest gettransaction d73c42c3d33ccc5908c56ae9fa7f39c12dd4634229474ddf845d1d947585a501
{
  "amount": 0.00000000,
  "confirmations": 2,
  "generated": true,
  "blockhash": "2ec67fc946f3e0a36383d3650b63cbb0f62e5466a76d9d4d261d97a91585c15d",
  "blockheight": 100,
  "blockindex": 0,
  "blocktime": 1594033865,
  "txid": "d73c42c3d33ccc5908c56ae9fa7f39c12dd4634229474ddf845d1d947585a501",
  "walletconflicts": [
  ],
  "time": 1594033847,
  "timereceived": 1594033847,
  "bip125-replaceable": "no",
  "details": [
    {
      "address": "bcrt1q0p0dw8h8fqjw8sfxy8mjae86ew4ql82p083f3d",
      "category": "immature",
      "amount": 50.00000000,
      "label": "",
      "vout": 0
    }
  ],
  "hex": "020000000001010000000000000000000000000000000000000000000000000000000000000000ffffffff0401640101ffffffff0200f2052a01000000160014785ed71ee74824e3c12621f72ee4facbaa0f9d410000000000000000266a24aa21a9ede2f61c3f71d1defd3fa999dfa36953755c690689799962b48bebd836974e8cf90120000000000000000000000000000000000000000000000000000000000000000000000000"
}
root@ubuntu:~# bitcoin-cli -regtest decoderawtransaction 020000000001010000000000000000000000000000000000000000000000000000000000000000ffffffff0401640101ffffffff0200f2052a01000000160014785ed71ee74824e3c12621f72ee4facbaa0f9d410000000000000000266a24aa21a9ede2f61c3f71d1defd3fa999dfa36953755c690689799962b48bebd836974e8cf90120000000000000000000000000000000000000000000000000000000000000000000000000
{
  "txid": "d73c42c3d33ccc5908c56ae9fa7f39c12dd4634229474ddf845d1d947585a501",
  "hash": "1bde0e5dd2cec37569310cd872a93cf9ce44b86ec3abd2aecc09eaa454b50179",
  "version": 2,
  "size": 169,
  "vsize": 142,
  "weight": 568,
  "locktime": 0,
  "vin": [
    {
      "coinbase": "01640101",
      "sequence": 4294967295
    }
  ],
  "vout": [
    {
      "value": 50.00000000,
      "n": 0,
      "scriptPubKey": {
        "asm": "0 785ed71ee74824e3c12621f72ee4facbaa0f9d41",
        "hex": "0014785ed71ee74824e3c12621f72ee4facbaa0f9d41",
        "reqSigs": 1,
        "type": "witness_v0_keyhash",
        "addresses": [
          "bcrt1q0p0dw8h8fqjw8sfxy8mjae86ew4ql82p083f3d"
        ]
      }
    },
    {
      "value": 0.00000000,
      "n": 1,
      "scriptPubKey": {
        "asm": "OP_RETURN aa21a9ede2f61c3f71d1defd3fa999dfa36953755c690689799962b48bebd836974e8cf9",
        "hex": "6a24aa21a9ede2f61c3f71d1defd3fa999dfa36953755c690689799962b48bebd836974e8cf9",
        "type": "nulldata"
      }
    }
  ]
}
root@ubuntu:~# bitcoin-cli -regtest   createrawtransaction "[{\"txid\":\"d73c42c3d33ccc5908c56ae9fa7f39c12dd4634229474ddf845d1d947585a501\",\"vout\":0}]" "[{\"bcrt1qgzpv99h6zlq2z3a9akkcj3qd4nk3lkdmk65l45\":0.01}]"
020000000101a58575941d5d84df4d47294263d42dc1397ffae96ac50859cc3cd3c3423cd70000000000ffffffff0140420f00000000001600144082c296fa17c0a147a5edad89440daced1fd9bb00000000

root@ubuntu:~# bitcoin-cli -regtest createrawtransaction "[{\"txid\":\"d73c42c3d33ccc5908c56ae9fa7f39c12dd4634229474ddf845d1d947585a501\",\"vout\":0}]" "[{\"bcrt1qgzpv99h6zlq2z3a9akkcj3qd4nk3lkdmk65l45\":0.01},{\"bcrt1q0p0dw8h8fqjw8sfxy8mjae86ew4ql82p083f3d\":49.98}]"
020000000101a58575941d5d84df4d47294263d42dc1397ffae96ac50859cc3cd3c3423cd70000000000ffffffff0240420f00000000001600144082c296fa17c0a147a5edad89440daced1fd9bb806de72901000000160014785ed71ee74824e3c12621f72ee4facbaa0f9d4100000000

root@ubuntu:~# bitcoin-cli -regtest decoderawtransaction 020000000101a58575941d5d84df4d47294263d42dc1397ffae96ac50859cc3cd3c3423cd70000000000ffffffff0240420f00000000001600144082c296fa17c0a147a5edad89440daced1fd9bb806de72901000000160014785ed71ee74824e3c12621f72ee4facbaa0f9d4100000000
{
  "txid": "b8ab5eb56f6b635eba4cdeb618190644c4ee576769128f88a9ff3fb1af7410cd",
  "hash": "b8ab5eb56f6b635eba4cdeb618190644c4ee576769128f88a9ff3fb1af7410cd",
  "version": 2,
  "size": 113,
  "vsize": 113,
  "weight": 452,
  "locktime": 0,
  "vin": [
    {
      "txid": "d73c42c3d33ccc5908c56ae9fa7f39c12dd4634229474ddf845d1d947585a501",
      "vout": 0,
      "scriptSig": {
        "asm": "",
        "hex": ""
      },
      "sequence": 4294967295
    }
  ],
  "vout": [
    {
      "value": 0.01000000,
      "n": 0,
      "scriptPubKey": {
        "asm": "0 4082c296fa17c0a147a5edad89440daced1fd9bb",
        "hex": "00144082c296fa17c0a147a5edad89440daced1fd9bb",
        "reqSigs": 1,
        "type": "witness_v0_keyhash",
        "addresses": [
          "bcrt1qgzpv99h6zlq2z3a9akkcj3qd4nk3lkdmk65l45"
        ]
      }
    },
    {
      "value": 49.98000000,
      "n": 1,
      "scriptPubKey": {
        "asm": "0 785ed71ee74824e3c12621f72ee4facbaa0f9d41",
        "hex": "0014785ed71ee74824e3c12621f72ee4facbaa0f9d41",
        "reqSigs": 1,
        "type": "witness_v0_keyhash",
        "addresses": [
          "bcrt1q0p0dw8h8fqjw8sfxy8mjae86ew4ql82p083f3d"
        ]
      }
    }
  ]
}

root@ubuntu:~# bitcoin-cli -regtest listunspent
[
  {
    "txid": "649d74f3fb9ec3e21d611689ebdfa1b9662c66c35a0eb2f4d277bafcbf353be5",
    "vout": 0,
    "address": "bcrt1q0p0dw8h8fqjw8sfxy8mjae86ew4ql82p083f3d",
    "label": "",
    "scriptPubKey": "0014785ed71ee74824e3c12621f72ee4facbaa0f9d41",
    "amount": 50.00000000,
    "confirmations": 101,
    "spendable": true,
    "solvable": true,
    "desc": "wpkh([b384e8f9/0'/0'/0']031731cd94bde1e0622f0f7ae2ee60d0745e12935baabfd44742b1df3631bd3f86)#45gmjtzw",
    "safe": true
  }
]

root@ubuntu:~# bitcoin-cli -regtest dumpprivkey bcrt1q0p0dw8h8fqjw8sfxy8mjae86ew4ql82p083f3d
cPR1FfX8CC8R7JP7umekEc4A3rjQm3RqcKB1CpCHwyikujnQZcjX


bitcoin-cli -regtest signrawtransactionwithkey "020000000101a58575941d5d84df4d47294263d42dc1397ffae96ac50859cc3cd3c3423cd70000000000ffffffff0240420f00000000001600144082c296fa17c0a147a5edad89440daced1fd9bb806de72901000000160014785ed71ee74824e3c12621f72ee4facbaa0f9d4100000000" "[\"cPR1FfX8CC8R7JP7umekEc4A3rjQm3RqcKB1CpCHwyikujnQZcjX\"]"

root@ubuntu:~# bitcoin-cli -regtest signrawtransactionwithkey "020000000101a58575941d5d84df4d47294263d42dc1397ffae96ac50859cc3cd3c3423cd70000000000ffffffff0240420f00000000001600144082c296fa17c0a147a5edad89440daced1fd9bb806de72901000000160014785ed71ee74824e3c12621f72ee4facbaa0f9d4100000000" "[\"cPR1FfX8CC8R7JP7umekEc4A3rjQm3RqcKB1CpCHwyikujnQZcjX\"]"
{
  "hex": "0200000000010101a58575941d5d84df4d47294263d42dc1397ffae96ac50859cc3cd3c3423cd70000000000ffffffff0240420f00000000001600144082c296fa17c0a147a5edad89440daced1fd9bb806de72901000000160014785ed71ee74824e3c12621f72ee4facbaa0f9d410247304402204399b123576fc81f05708799369ca22256acded5a146d752002fad85def0cc740220628cb2f294e31d2c872a1188781fa886293692439af01ec5db4d50562e4a0bc50121031731cd94bde1e0622f0f7ae2ee60d0745e12935baabfd44742b1df3631bd3f8600000000",
  "complete": true
}

root@ubuntu:~# bitcoin-cli -regtest decoderawtransaction "0200000000010101a58575941d5d84df4d47294263d42dc1397ffae96ac50859cc3cd3c3423cd70000000000ffffffff0240420f00000000001600144082c296fa17c0a147a5edad89440daced1fd9bb806de72901000000160014785ed71ee74824e3c12621f72ee4facbaa0f9d410247304402204399b123576fc81f05708799369ca22256acded5a146d752002fad85def0cc740220628cb2f294e31d2c872a1188781fa886293692439af01ec5db4d50562e4a0bc50121031731cd94bde1e0622f0f7ae2ee60d0745e12935baabfd44742b1df3631bd3f8600000000"
{
  "txid": "b8ab5eb56f6b635eba4cdeb618190644c4ee576769128f88a9ff3fb1af7410cd",
  "hash": "34442033714bf499e0445f81e0943904d190c8b7b006a3a8ca6fdfa25529e32b",
  "version": 2,
  "size": 222,
  "vsize": 141,
  "weight": 561,
  "locktime": 0,
  "vin": [
    {
      "txid": "d73c42c3d33ccc5908c56ae9fa7f39c12dd4634229474ddf845d1d947585a501",
      "vout": 0,
      "scriptSig": {
        "asm": "",
        "hex": ""
      },
      "txinwitness": [
        "304402204399b123576fc81f05708799369ca22256acded5a146d752002fad85def0cc740220628cb2f294e31d2c872a1188781fa886293692439af01ec5db4d50562e4a0bc501",
        "031731cd94bde1e0622f0f7ae2ee60d0745e12935baabfd44742b1df3631bd3f86"
      ],
      "sequence": 4294967295
    }
  ],
  "vout": [
    {
      "value": 0.01000000,
      "n": 0,
      "scriptPubKey": {
        "asm": "0 4082c296fa17c0a147a5edad89440daced1fd9bb",
        "hex": "00144082c296fa17c0a147a5edad89440daced1fd9bb",
        "reqSigs": 1,
        "type": "witness_v0_keyhash",
        "addresses": [
          "bcrt1qgzpv99h6zlq2z3a9akkcj3qd4nk3lkdmk65l45"
        ]
      }
    },
    {
      "value": 49.98000000,
      "n": 1,
      "scriptPubKey": {
        "asm": "0 785ed71ee74824e3c12621f72ee4facbaa0f9d41",
        "hex": "0014785ed71ee74824e3c12621f72ee4facbaa0f9d41",
        "reqSigs": 1,
        "type": "witness_v0_keyhash",
        "addresses": [
          "bcrt1q0p0dw8h8fqjw8sfxy8mjae86ew4ql82p083f3d"
        ]
      }
    }
  ]
}


root@ubuntu:~# ./check.sh 
101
     23      42     795
     23      42     795
     23      42     794
     23      42     794
     23      42     794
     23      42     794
     23      42     794
     23      42     794
     23      42     794
     23      42     795
     23      42     795
     23      42     795
     23      42     795
     23      42     795
     23      42     795
     23      42     795
     23      42     795
     23      42     795
     23      42     795
     23      42     795
     23      42     795
     23      42     795
     23      42     795
     23      42     795
     23      42     795
     23      42     795
     23      42     795
     23      42     795
     23      42     795
     23      42     795
     23      42     795
     23      42     795
     23      42     795
     23      42     795
     23      42     795
     23      42     795
     23      42     795
     23      42     795
     23      42     795
     23      42     795
     23      42     795
     23      42     795
     23      42     795
     23      42     795
     23      42     795
     23      42     795
     23      42     795
     23      42     795
     23      42     795
     23      42     795
     23      42     795
     23      42     795
     23      42     795
     23      42     795
     23      42     795
     23      42     795
     23      42     795
     23      42     795
     23      42     795
     23      42     795
     23      42     795
     23      42     795
     23      42     795
     23      42     795
     23      42     795
     23      42     795
     23      42     795
     23      42     795
     23      42     795
     23      42     795
     23      42     795
     23      42     795
     23      42     795
     23      42     795
     23      42     795
     23      42     795
     23      42     795
     23      42     795
     23      42     795
     23      42     795
     23      42     795
     23      42     795
     23      42     795
     23      42     795
     23      42     795
     23      42     795
     23      42     795
     23      42     795
     23      42     795
     23      42     795
     23      42     795
     23      42     795
     23      42     794
     23      42     794
     23      42     794
     23      42     794
     23      42     794
     23      42     794
     23      42     794
     23      42     795
     22      40     708
root@ubuntu:~# bitcoin-cli -regtest listtransactions
[
  {
    "address": "bcrt1q0p0dw8h8fqjw8sfxy8mjae86ew4ql82p083f3d",
    "category": "immature",
    "amount": 50.00000000,
    "label": "",
    "vout": 0,
    "confirmations": 10,
    "generated": true,
    "blockhash": "16082e8c7988dff47321640e3ce3208023daf01dea0b823352162e438454f1c9",
    "blockheight": 92,
    "blockindex": 0,
    "blocktime": 1594033864,
    "txid": "93421952195adf2305d70150ff62535d81634e82a72e7ec09843eed3111aabc5",
    "walletconflicts": [
    ],
    "time": 1594033847,
    "timereceived": 1594033847,
    "bip125-replaceable": "no"
  },
  {
    "address": "bcrt1q0p0dw8h8fqjw8sfxy8mjae86ew4ql82p083f3d",
    "category": "immature",
    "amount": 50.00000000,
    "label": "",
    "vout": 0,
    "confirmations": 9,
    "generated": true,
    "blockhash": "18a3a37976b4579c7476bd9e81ac7142bf8ce6d48da6fb6eb50227e8ab35c089",
    "blockheight": 93,
    "blockindex": 0,
    "blocktime": 1594033864,
    "txid": "2ba1378f2267d153e0cf1aa8da5ac31c9cb96cdecf0ef13f7f10ae3d30a5cd39",
    "walletconflicts": [
    ],
    "time": 1594033847,
    "timereceived": 1594033847,
    "bip125-replaceable": "no"
  },
  {
    "address": "bcrt1q0p0dw8h8fqjw8sfxy8mjae86ew4ql82p083f3d",
    "category": "immature",
    "amount": 50.00000000,
    "label": "",
    "vout": 0,
    "confirmations": 8,
    "generated": true,
    "blockhash": "0973a103cec27470139323dd7c1a6a90e3d10eea282347434f14de1f94822ea9",
    "blockheight": 94,
    "blockindex": 0,
    "blocktime": 1594033864,
    "txid": "3eb8f17be0edddadbe9fa06f34c1fa88f6f71b249a79892e6461d216158cc019",
    "walletconflicts": [
    ],
    "time": 1594033847,
    "timereceived": 1594033847,
    "bip125-replaceable": "no"
  },
  {
    "address": "bcrt1q0p0dw8h8fqjw8sfxy8mjae86ew4ql82p083f3d",
    "category": "immature",
    "amount": 50.00000000,
    "label": "",
    "vout": 0,
    "confirmations": 7,
    "generated": true,
    "blockhash": "04e28641f5deefaea5e6da7af3cbfec0753eb610b4fc74db6ce425608283fea6",
    "blockheight": 95,
    "blockindex": 0,
    "blocktime": 1594033864,
    "txid": "77c75485dd3a341454db175b4cbd56995241b5d396fdd074364ce97c0abc970b",
    "walletconflicts": [
    ],
    "time": 1594033847,
    "timereceived": 1594033847,
    "bip125-replaceable": "no"
  },
  {
    "address": "bcrt1q0p0dw8h8fqjw8sfxy8mjae86ew4ql82p083f3d",
    "category": "immature",
    "amount": 50.00000000,
    "label": "",
    "vout": 0,
    "confirmations": 6,
    "generated": true,
    "blockhash": "354bc03e1e289a78e66d874c697d31615bcd37c72de084e5cffa1c7cd58a7363",
    "blockheight": 96,
    "blockindex": 0,
    "blocktime": 1594033864,
    "txid": "b81066b04df92666732d9223a54380b44d3b1f3cc6372c1e4d3e9d1ef7088c86",
    "walletconflicts": [
    ],
    "time": 1594033847,
    "timereceived": 1594033847,
    "bip125-replaceable": "no"
  },
  {
    "address": "bcrt1q0p0dw8h8fqjw8sfxy8mjae86ew4ql82p083f3d",
    "category": "immature",
    "amount": 50.00000000,
    "label": "",
    "vout": 0,
    "confirmations": 5,
    "generated": true,
    "blockhash": "1a669b80a3ef83c70f923fadee19d02e09e776bc5dd2ca0a7464dff59f021060",
    "blockheight": 97,
    "blockindex": 0,
    "blocktime": 1594033864,
    "txid": "802b54231daf4a8db7e62c153a1d5b034517763c7c014048b9df6f1f84dd23fd",
    "walletconflicts": [
    ],
    "time": 1594033847,
    "timereceived": 1594033847,
    "bip125-replaceable": "no"
  },
  {
    "address": "bcrt1q0p0dw8h8fqjw8sfxy8mjae86ew4ql82p083f3d",
    "category": "immature",
    "amount": 50.00000000,
    "label": "",
    "vout": 0,
    "confirmations": 4,
    "generated": true,
    "blockhash": "788268ce23659d93e6d8ebe12a019e5dac839c8d36ccf55cadb34ee5cd3c1191",
    "blockheight": 98,
    "blockindex": 0,
    "blocktime": 1594033865,
    "txid": "0255f1a89365de8e0cfbb2555c411265e5c9aa0fc835e22169e5a3c100b46c54",
    "walletconflicts": [
    ],
    "time": 1594033847,
    "timereceived": 1594033847,
    "bip125-replaceable": "no"
  },
  {
    "address": "bcrt1q0p0dw8h8fqjw8sfxy8mjae86ew4ql82p083f3d",
    "category": "immature",
    "amount": 50.00000000,
    "label": "",
    "vout": 0,
    "confirmations": 3,
    "generated": true,
    "blockhash": "1d86498be634b277f2e836b1f9af24347a7f6f038c1f6f08835b86036f17413a",
    "blockheight": 99,
    "blockindex": 0,
    "blocktime": 1594033865,
    "txid": "424c85d11c650dc1b100e1f232cb1fd30e1cd0ea215aff23db1109fc7746ede5",
    "walletconflicts": [
    ],
    "time": 1594033847,
    "timereceived": 1594033847,
    "bip125-replaceable": "no"
  },
  {
    "address": "bcrt1q0p0dw8h8fqjw8sfxy8mjae86ew4ql82p083f3d",
    "category": "immature",
    "amount": 50.00000000,
    "label": "",
    "vout": 0,
    "confirmations": 2,
    "generated": true,
    "blockhash": "2ec67fc946f3e0a36383d3650b63cbb0f62e5466a76d9d4d261d97a91585c15d",
    "blockheight": 100,
    "blockindex": 0,
    "blocktime": 1594033865,
    "txid": "d73c42c3d33ccc5908c56ae9fa7f39c12dd4634229474ddf845d1d947585a501",
    "walletconflicts": [
    ],
    "time": 1594033847,
    "timereceived": 1594033847,
    "bip125-replaceable": "no"
  },
  {
    "address": "bcrt1q0p0dw8h8fqjw8sfxy8mjae86ew4ql82p083f3d",
    "category": "immature",
    "amount": 50.00000000,
    "label": "",
    "vout": 0,
    "confirmations": 1,
    "generated": true,
    "blockhash": "75323c731691f483caa8efd0dd90055d57c5f02ca66da418b1e1f64cc1661426",
    "blockheight": 101,
    "blockindex": 0,
    "blocktime": 1594033865,
    "txid": "c2fbd2416c64ae50de7a9ba12c19b64fca7f5fabff5ba0aac7c09824e6740774",
    "walletconflicts": [
    ],
    "time": 1594033847,
    "timereceived": 1594033847,
    "bip125-replaceable": "no"
  }
]


root@ubuntu:~# bitcoin-cli -regtest sendrawtransaction "0200000000010101a58575941d5d84df4d47294263d42dc1397ffae96ac50859cc3cd3c3423cd70000000000ffffffff0240420f00000000001600144082c296fa17c0a147a5edad89440daced1fd9bb806de72901000000160014785ed71ee74824e3c12621f72ee4facbaa0f9d410247304402204399b123576fc81f05708799369ca22256acded5a146d752002fad85def0cc740220628cb2f294e31d2c872a1188781fa886293692439af01ec5db4d50562e4a0bc50121031731cd94bde1e0622f0f7ae2ee60d0745e12935baabfd44742b1df3631bd3f8600000000"



root@ubuntu:~# bitcoin-cli -regtest sendrawtransaction "0200000000010101a58575941d5d84df4d47294263d42dc1397ffae96ac50859cc3cd3c3423cd70000000000ffffffff0240420f00000000001600144082c296fa17c0a147a5edad89440daced1fd9bb806de72901000000160014785ed71ee74824e3c12621f72ee4facbaa0f9d410247304402204399b123576fc81f05708799369ca22256acded5a146d752002fad85def0cc740220628cb2f294e31d2c872a1188781fa886293692439af01ec5db4d50562e4a0bc50121031731cd94bde1e0622f0f7ae2ee60d0745e12935baabfd44742b1df3631bd3f8600000000"
error code: -26
error message:
bad-txns-premature-spend-of-coinbase, tried to spend coinbase at depth 2

bitcoin-cli -regtest generatetoaddress 101 bcrt1q0p0dw8h8fqjw8sfxy8mjae86ew4ql82p083f3d


bitcoin-cli -regtest sendrawtransaction "0200000000010101a58575941d5d84df4d47294263d42dc1397ffae96ac50859cc3cd3c3423cd70000000000ffffffff0240420f00000000001600144082c296fa17c0a147a5edad89440daced1fd9bb806de72901000000160014785ed71ee74824e3c12621f72ee4facbaa0f9d410247304402204399b123576fc81f05708799369ca22256acded5a146d752002fad85def0cc740220628cb2f294e31d2c872a1188781fa886293692439af01ec5db4d50562e4a0bc50121031731cd94bde1e0622f0f7ae2ee60d0745e12935baabfd44742b1df3631bd3f8600000000"
b8ab5eb56f6b635eba4cdeb618190644c4ee576769128f88a9ff3fb1af7410cd


root@ubuntu:~# bitcoin-cli -regtest gettransaction b8ab5eb56f6b635eba4cdeb618190644c4ee576769128f88a9ff3fb1af7410cd
{
  "amount": 0.00000000,
  "fee": -0.01000000,
  "confirmations": 0,
  "trusted": true,
  "txid": "b8ab5eb56f6b635eba4cdeb618190644c4ee576769128f88a9ff3fb1af7410cd",
  "walletconflicts": [
  ],
  "time": 1594037605,
  "timereceived": 1594037605,
  "bip125-replaceable": "no",
  "details": [
    {
      "address": "bcrt1qgzpv99h6zlq2z3a9akkcj3qd4nk3lkdmk65l45",
      "category": "send",
      "amount": -0.01000000,
      "label": "",
      "vout": 0,
      "fee": -0.01000000,
      "abandoned": false
    },
    {
      "address": "bcrt1q0p0dw8h8fqjw8sfxy8mjae86ew4ql82p083f3d",
      "category": "send",
      "amount": -49.98000000,
      "label": "",
      "vout": 1,
      "fee": -0.01000000,
      "abandoned": false
    },
    {
      "address": "bcrt1qgzpv99h6zlq2z3a9akkcj3qd4nk3lkdmk65l45",
      "category": "receive",
      "amount": 0.01000000,
      "label": "",
      "vout": 0
    },
    {
      "address": "bcrt1q0p0dw8h8fqjw8sfxy8mjae86ew4ql82p083f3d",
      "category": "receive",
      "amount": 49.98000000,
      "label": "",
      "vout": 1
    }
  ],
  "hex": "0200000000010101a58575941d5d84df4d47294263d42dc1397ffae96ac50859cc3cd3c3423cd70000000000ffffffff0240420f00000000001600144082c296fa17c0a147a5edad89440daced1fd9bb806de72901000000160014785ed71ee74824e3c12621f72ee4facbaa0f9d410247304402204399b123576fc81f05708799369ca22256acded5a146d752002fad85def0cc740220628cb2f294e31d2c872a1188781fa886293692439af01ec5db4d50562e4a0bc50121031731cd94bde1e0622f0f7ae2ee60d0745e12935baabfd44742b1df3631bd3f8600000000"
}


root@ubuntu:/home/ubuntu/bitcoin-master/depends# bitcoin-cli -regtest createrawtransaction "[{\"txid\":\"d73c42c3d33ccc5908c56ae9fa7f39c12dd4634229474ddf845d1d947585a501\",\"vout\":0}]" "[{\"bcrt1qgzpv99h6zlq2z3a9akkcj3qd4nk3lkdmk65l45\":0.01},{\"bcrt1q0p0dw8h8fqjw8sfxy8mjae86ew4ql82p083f3d\":48.98},{\"data\":\"000202\"}]"
020000000101a58575941d5d84df4d47294263d42dc1397ffae96ac50859cc3cd3c3423cd70000000000ffffffff0340420f00000000001600144082c296fa17c0a147a5edad89440daced1fd9bb808cf12301000000160014785ed71ee74824e3c12621f72ee4facbaa0f9d410000000000000000056a0300020200000000

root@ubuntu:/home/ubuntu/bitcoin-master/depends# bitcoin-cli -regtest decoderawtransaction 020000000101a58575941d5d84df4d47294263d42dc1397ffae96ac50859cc3cd3c3423cd70000000000ffffffff0340420f00000000001600144082c296fa17c0a147a5edad89440daced1fd9bb808cf12301000000160014785ed71ee74824e3c12621f72ee4facbaa0f9d410000000000000000056a0300020200000000
{
  "txid": "94da71b0f65ff9dff8f56b42c2ffa4c4bb87f7c53ffb16759a66539b770c51db",
  "hash": "94da71b0f65ff9dff8f56b42c2ffa4c4bb87f7c53ffb16759a66539b770c51db",
  "version": 2,
  "size": 127,
  "vsize": 127,
  "weight": 508,
  "locktime": 0,
  "vin": [
    {
      "txid": "d73c42c3d33ccc5908c56ae9fa7f39c12dd4634229474ddf845d1d947585a501",
      "vout": 0,
      "scriptSig": {
        "asm": "",
        "hex": ""
      },
      "sequence": 4294967295
    }
  ],
  "vout": [
    {
      "value": 0.01000000,
      "n": 0,
      "scriptPubKey": {
        "asm": "0 4082c296fa17c0a147a5edad89440daced1fd9bb",
        "hex": "00144082c296fa17c0a147a5edad89440daced1fd9bb",
        "reqSigs": 1,
        "type": "witness_v0_keyhash",
        "addresses": [
          "bcrt1qgzpv99h6zlq2z3a9akkcj3qd4nk3lkdmk65l45"
        ]
      }
    },
    {
      "value": 48.98000000,
      "n": 1,
      "scriptPubKey": {
        "asm": "0 785ed71ee74824e3c12621f72ee4facbaa0f9d41",
        "hex": "0014785ed71ee74824e3c12621f72ee4facbaa0f9d41",
        "reqSigs": 1,
        "type": "witness_v0_keyhash",
        "addresses": [
          "bcrt1q0p0dw8h8fqjw8sfxy8mjae86ew4ql82p083f3d"
        ]
      }
    },
    {
      "value": 0.00000000,
      "n": 2,
      "scriptPubKey": {
        "asm": "OP_RETURN 131584",
        "hex": "6a03000202",
        "type": "nulldata"
      }
    }
  ]
}


